:1000000073C000008FC000008DC000008BC00000D6
:1000100089C0000087C0000085C0000083C00000C8
:1000200081C000007FC000007DC000007BC00000D8
:1000300079C00000BAC1000075C0000073C00000A4
:1000400071C000006FC000006DC000006BC00000F8
:1000500069C0000067C0000065C0000063C0000008
:1000600061C000005FC000005DC000005BC0000018
:1000700059C0000057C0000055C0000053C0000028
:1000800051C000004FC000004DC0000036033E03C9
:1000900047034A035603620366039403A903B203AA
:1000A00015042D043504410449048304A404C50443
:1000B000EB04FA0412051E052D056F055B056F059F
:1000C0005E0562056505690592059605C705E805A3
:1000D00009062A064A06520681068E069B06AF06C8
:1000E000C306D706EB06FA0611241FBECFEFD0E4F5
:1000F000DEBFCDBF11E0A0E0B1E0E2E2F3E100E05D
:100100000BBF02C007900D92AC36B107D9F721E0C2
:10011000ACE6B1E001C01D92AF38B207E1F783D67B
:100120000C948F096DCFFC010FB6F89460918B0190
:1001300070918C0180918D0190918E010FBE30974E
:1001400021F060837183828393830895CF93DF933B
:10015000CDB7DEB781E01AD00000DF91CF910895CE
:10016000CF93DF93CDB7DEB784E690E0ACD088E3E1
:100170000DD086E00BD08FE009D081E007D08AE077
:1001800090E0A1D00000DF91CF910895CF93DF934D
:100190001F92CDB7DEB789838BE290E02BE230E08F
:1001A000F90120812F7BFC01208388E290E02981E6
:1001B000FC0120838BE290E02BE230E0F90120810A
:1001C0002068FC01208300008BE290E02BE230E00D
:1001D000F90120812F77FC01208382E090E073D029
:1001E00000000F90DF91CF910895CF93DF931F927E
:1001F000CDB7DEB789838BE290E02BE230E0F901E6
:1002000020812064FC01208388E290E02981FC01A8
:1002100020838BE290E02BE230E0F901208120681E
:10022000FC01208300008BE290E02BE230E0F9013A
:1002300020812F77FC01208381E090E044D00000F2
:100240000F90DF91CF910895CF93DF9300D000D02E
:10025000CDB7DEB78A837C836B8378DF8A8189831D
:100260000FC0898191E0980F998318D08B819C8170
:100270009C012F5F3F4F3C832B83FC018081B5DFC6
:100280008B819C81FC018081882359F700000F90AD
:100290000F900F900F90DF91CF910895CF93DF9340
:1002A0001F92CDB7DEB789838981813120F489819E
:1002B00081586CDF03C08981815568DF00000F9091
:1002C000DF91CF910895CF93DF9300D000D000D07D
:1002D000CDB7DEB79E838D831A82198213C01C822C
:1002E0001B8206C000008B819C8101969C838B83BE
:1002F0008B819C8187309340ACF389819A810196F0
:100300009A83898329813A818D819E8128173907B3
:1003100034F3000026960FB6F894DEBF0FBECDBFB3
:10032000DF91CF910895CF93DF93CDB7DEB781E80A
:1003300090E02BE0FC01208388E890E02DE730E09E
:10034000FC01318320838FE690E022E0FC012083D2
:1003500084E890E0FC011182108280910401909168
:100360000501A0910601B091070180936D01909362
:100370006E01A0936F01B09370018FE590E02FE5BF
:1003800030E0F90120812068FC0120830000DF912A
:10039000CF910895CF93DF93CDB7DEB781E08093FF
:1003A0006C010000DF91CF9108951F920F92009091
:1003B0005F000F92112400905B000F922F933F93E8
:1003C0004F935F936F937F938F939F93AF93BF935D
:1003D000EF93FF93CF93DF93CDB7DEB780916D019D
:1003E00090916E01A0916F01B09170010197A109E8
:1003F000B10980936D0190936E01A0936F01B0934A
:10040000700180916D0190916E01A0916F01B0918A
:100410007001892B8A2B8B2B89F4BCDF809104011E
:1004200090910501A0910601B091070180936D01A3
:1004300090936E01A0936F01B09370010000DF9163
:10044000CF91FF91EF91BF91AF919F918F917F914C
:100450006F915F914F913F912F910F9000925B00B0
:100460000F9000925F000F901F901895CF93DF932D
:1004700000D000D0CDB7DEB769837A838B839C83AD
:1004800089819A81AB81BC8180930401909305019D
:10049000A0930601B093070180910401909105019A
:1004A000A0910601B091070180936D0190936E01B8
:1004B000A0936F01B093700100000F900F900F9008
:1004C0000F90DF91CF9108950F931F93CF93DF93F8
:1004D00000D000D0CDB7DEB769837A838B839C834D
:1004E0008091850190918601A0918701B09188014A
:1004F0009C01AD0169817A818B819C81DCD4882348
:1005000009F471C020E030E0A90169817A818B8112
:100510009C81D1D4882351F481E990E021E930E035
:10052000F90120812870FC01208309C081E990E055
:1005300021E930E0F90120812360FC01208328E5D6
:1005400039E344E75FE369817A818B819C81B3D48D
:10055000882344F488E990E02FEF3FEFFC013183DA
:10056000208330C020E034E244EF56E469817A8190
:100570008B819C81B2D5181634F488E990E0FC0197
:10058000118210821FC008E910E020E030E040E056
:1005900053E469817A818B819C81A3D5DC01CB01F5
:1005A0009C01AD0160E074E284EF9AE488D4DC0140
:1005B000CB01BC01CD01EBD4DC01CB010197F801EB
:1005C0009183808384E990E0FC011182108289810B
:1005D0009A81AB81BC818093850190938601A09321
:1005E0008701B093880100000F900F900F900F903B
:1005F000DF91CF911F910F910895CF93DF93CDB7E6
:10060000DEB780E990E020E4FC01208381E990E0FE
:100610002BE0FC01208360E070E0CB0155DF00009F
:10062000DF91CF9108950F931F93CF93DF93CDB7B1
:10063000DEB780E290E0FC018081809580938301A9
:1006400080918901882F90E0092E000CAA0BBB0B2A
:1006500040E050E02EE030E0841B950B281739076E
:1006600008F423C18A5B9F4FFC019EC569E071E0DD
:1006700081E0EADD81E0809389012FC180918301CF
:1006800088230CF015C182E08093890111C183E0B9
:10069000809389018091710190917201803D974012
:1006A00008F408C184E08093890104C1809171013C
:1006B00090917201843F914008F4FEC085E08093E0
:1006C0008901FAC086E08093890107C18091710198
:1006D00090917201843F914050F09091750180910A
:1006E0000801981720F484E080938901E7C0809185
:1006F000710190917201843F914008F4DFC09091A4
:10070000750180910801981708F4D8C010927501FE
:1007100067E271E081E098DD80910801815D65DD2F
:1007200087E080938901CAC080918401813069F09B
:1007300080918401823049F080918401833029F0D6
:1007400080918401843009F0BBC088E080938901E6
:10075000B7C080918301882309F0B4C089E08093F9
:100760008901B0C080917501882F90E086589E4F16
:10077000FC019081809184019817F9F480917501B2
:10078000282F30E080910801882F90E001972817EA
:1007900039079CF410928401809175018F5F8093DA
:1007A000750167E271E081E04FDD80910801815DB4
:1007B0001CDD87E08093890137C080917501882F07
:1007C00090E086589E4FFC0190818091840198179B
:1007D000A1F480917501282F30E080910801882FC5
:1007E00090E001972817390744F010928401109285
:1007F00075018AE08093890117C080917501882F67
:1008000090E086589E4FFC0190818091840198175A
:1008100009F45AC0109284016FE271E081E014DDA6
:100820008DE08093890150C04FC09091080186E00F
:10083000981758F4809108018F5F809308011092F7
:10084000750183E08093890148C06DE471E081E027
:10085000FBDC8BE08093890140C080918301882379
:10086000ACF58CE08093890131C0809183018823AD
:1008700079F569E071E081E0E7DC81E0809389014E
:1008800027C08091830188232CF58EE08093890115
:1008900021C0809183018823F9F469E071E081E04F
:1008A000D3DC81E08093890117C01092890115C0C3
:1008B000000013C0000011C000000FC000000DC0F8
:1008C00000000BC0000009C0000007C0000005C008
:1008D000000003C0000001C0000080918901882F42
:1008E00090E0092E000CAA0BBB0B40E050E02EE07C
:1008F00030E0841B950B2817390708F4EDC08B5A9C
:100900009F4FFC0151C41092750181E08093080152
:10091000109277011092780110927901109276016D
:100920000DC080917601882F90E086589E4FFC0183
:100930001082809176018F5F80937601909176018D
:1009400086E0981770F3CEC01092750181E0809315
:10095000080110927701109278011092790110929B
:1009600076010DC080917601882F90E086589E4FC9
:10097000FC011082809176018F5F809376019091C7
:10098000760186E0981770F3ADC01092760119C019
:1009900080917601082F10E057D4837090789923C6
:1009A00024F401978C6F9F6F019621E0280FC801F6
:1009B00086589E4FFC012083809176018F5F809343
:1009C00076019091760186E0981710F310927201EB
:1009D0001092710187C0209171013091720184E6FB
:1009E00090E0820F931F9093720180937101109297
:1009F000790178C080917501882F90E086589E4FCC
:100A0000FC01808180937901209171013091720104
:100A100084E690E0820F931F90937201809371019E
:100A200095DB60C0809175018F5F80937501109296
:100A30007201109271011092790154C010927901E3
:100A4000209171013091720184E690E0820F931F32
:100A5000909372018093710145C010927901809149
:100A60008301813039F481E08093790181E08093C2
:100A7000840137C080918301823039F482E0809311
:100A8000790182E0809384012CC0809183018430BD
:100A900039F483E08093790183E08093840121C05D
:100AA000809183018830E9F484E08093790184E0C7
:100AB0008093840116C01092790114C088E080935D
:100AC000790110C0109279010DC086E08093790100
:100AD00009C01092790106C01092890103C000007C
:100AE00001C000000000DF91CF911F910F91089588
:100AF000CF93DF93CDB7DEB780918A01882F90E046
:100B0000092E000CAA0BBB0B40E050E027E030E0C0
:100B1000841B950B2817390708F4CCC08C599F4FBC
:100B2000FC0142C381E080938A01D5C080917901A4
:100B3000813021F482E080938A01C0C080917901E4
:100B4000823021F483E080938A01B8C080917901DA
:100B5000833021F484E080938A01B0C080917901D0
:100B6000843021F485E080938A01A8C080917901C6
:100B7000883021F486E080938A01A0C080917901B9
:100B8000863009F09BC087E080938A0197C08091EE
:100B90007901882321F481E080938A0191C08091BA
:100BA0007901823021F483E080938A0189C08091A9
:100BB0007901833021F484E080938A0181C080919F
:100BC0007901843009F07CC085E080938A0178C087
:100BD00080917901882321F481E080938A0172C099
:100BE00080917901813021F482E080938A016AC08A
:100BF00080917901833021F484E080938A0162C07E
:100C000080917901843009F05DC085E080938A018C
:100C100059C080917901882321F481E080938A0171
:100C200053C080917901813021F482E080938A0160
:100C30004BC080917901823021F483E080938A0156
:100C400043C080917901843009F03EC085E08093F3
:100C50008A013AC080917901882321F481E0809350
:100C60008A0134C080917901813021F482E080933F
:100C70008A012CC080917901823021F483E0809335
:100C80008A0124C080917901833001F584E080934A
:100C90008A011CC0809179018823D1F481E080937E
:100CA0008A0116C0809179018823A1F481E08093A4
:100CB0008A0110C081E080938A010DC000000BC042
:100CC000000009C0000007C0000005C0000003C00C
:100CD000000001C0000080918A01882F90E0092E59
:100CE000000CAA0BBB0B40E050E027E030E0841B77
:100CF000950B2817390708F491C084599F4FFC01C0
:100D000053C2109274011092730185E290E0FC01CD
:100D1000108260E070E0CB01D7DB81C010927401DB
:100D20001092730185E290E0FC01108260E070E0B7
:100D3000CB01CADB74C0809173019091740101965C
:100D4000909374018093730185E290E021E0FC01AF
:100D500020836CE57FEF83EC93E4B6DB60C0809189
:100D600073019091740101969093740180937301C3
:100D700085E290E022E0FC01208361E270ED82E8F0
:100D800093E4A2DB4CC080917301909174010196B1
:100D9000909374018093730185E290E024E0FC015C
:100DA00020836FE175ED82E993E48EDB38C080919A
:100DB0007301909174010196909374018093730173
:100DC00085E290E028E0FC0120836BE37FEF88EB75
:100DD00093E47ADB24C080917301909174010196B1
:100DE000909374018093730185E290E02FEFFC01F2
:100DF000208315C0809173019091740101969093A6
:100E000074018093730185E290E02FEFFC01208351
:100E10006BE774E189EE92E457DB01C0000000004B
:100E2000DF91CF910895CF93DF93CDB7DEB781E205
:100E300090E0FC01108282E290E02FEFFC01208321
:100E400084E290E02FEFFC01208385E290E0FC013A
:100E5000108287E290E02FEFFC01208388E290E08F
:100E6000FC0110828AE290E02FEFFC0120838BE2EC
:100E700090E0FC01108284E690E0CC01A0E0B0E0BC
:100E8000BC01CD01F3DA4FDA6BD9B7DB80E090E03B
:100E90004AD9DC01CB01DBD18FEF8093890110921D
:100EA0008A01C1DB25DE000080916C018823E1F31B
:100EB00010926C01F6CF9CD008F481E008950CD01C
:100EC000D2C0CAD040F0C1D030F021F45F3F19F059
:100ED000B3C05111FCC0B6C0D7D098F39923C9F361
:100EE0005523B1F3951B550BBB27AA276217730730
:100EF000840738F09F5F5F4F220F331F441FAA1FE4
:100F0000A9F333D00E2E3AF0E0E830D091505040A3
:100F1000E695001CCAF729D0FE2F27D0660F771F51
:100F2000881FBB1F261737074807AB07B0E809F033
:100F3000BB0B802DBF01FF2793585F4F2AF09E3FC8
:100F4000510568F079C0C3C05F3FECF3983EDCF315
:100F5000869577956795B795F7959F5FC9F7880F41
:100F6000911D9695879597F90895E1E0660F771F93
:100F7000881FBB1F621773078407BA0720F0621B24
:100F8000730B840BBA0BEE1F88F7E095089504D01D
:100F90006894B1119CC008957FD088F09F5790F05D
:100FA000B92F9927B751A0F0D1F0660F771F881F8E
:100FB000991F1AF0BA95C9F712C0B13081F086D0E6
:100FC000B1E0089583C0672F782F8827B85F39F084
:100FD000B93FCCF3869577956795B395D9F73EF4ED
:100FE00090958095709561957F4F8F4F9F4F089595
:100FF000990F0008550FAA0BE0E8FEEF161617062A
:10100000E807F907C0F012161306E407F50798F091
:10101000621B730B840B950B39F40A2661F0232BAA
:10102000242B252B21F408950A2609F4A140A69526
:101030008FEF811D811D089597F99F6780E870E00B
:1010400060E008959FEF80EC089500240A9416163E
:10105000170618060906089500240A9412161306A6
:10106000140605060895092E0394000C11F4882334
:1010700052F0BB0F40F4BF2B11F460FF04C06F5F50
:101080007F4F8F4F9F4F089557FD9058440F551F26
:1010900059F05F3F71F04795880F97FB991F61F0FA
:1010A0009F3F79F087950895121613061406551F71
:1010B000F2CF4695F1DF08C0161617061806991FDD
:1010C000F1CF86957105610508940895E894BB27D2
:1010D00066277727CB0197F908958ADF08F48FEF09
:1010E00008950BD0C0CFB1DF28F0B6DF18F09523FC
:1010F00009F0A2CFA7CF1124EACFC6DFA0F3959FB6
:10110000D1F3950F50E0551F629FF001729FBB27EE
:10111000F00DB11D639FAA27F00DB11DAA1F649F9A
:101120006627B00DA11D661F829F2227B00DA11D4D
:10113000621F739FB00DA11D621F839FA00D611DD3
:10114000221F749F3327A00D611D231F849F600DF4
:10115000211D822F762F6A2F11249F5750408AF02D
:10116000E1F088234AF0EE0FFF1FBB1F661F771FB9
:10117000881F91505040A9F79E3F510570F05CCFF9
:10118000A6CF5F3FECF3983EDCF3869577956795A5
:10119000B795F795E7959F5FC1F7FE2B880F911DD7
:1011A0009695879597F90895EE0FFF1F0024001C70
:1011B0000BBE0790F691E02D09948F929F92AF920B
:1011C000BF92CF92DF92EF92FF92CF93DF93EC0129
:1011D000688179818A819B816115710581059105FD
:1011E00021F464E279ED8BE597E02DE133EF41E006
:1011F00050E038D049015A019B01AC01A7EAB1E4A3
:101200004DD06B017C01ACEEB4EFA501940152D03E
:10121000DC01CB018C0D9D1DAE1DBF1DB7FF03C0B2
:101220000197A109B04888839983AA83BB839F77DC
:10123000DF91CF91FF90EF90DF90CF90BF90AF9074
:101240009F908F900895B9CF80E091E0B6CFA0E055
:10125000B0E08093000190930101A0930201B0934C
:1012600003010895052E97FB16F400940FD057FD47
:1012700005D024D007FC02D046F408C05095409514
:10128000309521953F4F4F4F5F4F08959095809532
:10129000709561957F4F8F4F9F4F089531D0A59FD7
:1012A000900DB49F900DA49F800D911D1124089561
:1012B000B7FFF4CFF3DF821B930B0895A1E21A2E40
:1012C000AA1BBB1BFD010DC0AA1FBB1FEE1FFF1FEA
:1012D000A217B307E407F50720F0A21BB30BE40B3A
:1012E000F50B661F771F881F991F1A9469F7609581
:1012F0007095809590959B01AC01BD01CF0108953B
:10130000A29FB001B39FC001A39F700D811D112446
:10131000911DB29F700D811D1124911D0895F894A7
:02132000FFCFFD
:1013220001000000010000000157656C636F6D65EC
:1013320020746F2053696D6F6E2020507265737335
:101342002053746172740053636F72653A200020F7
:10135200202057726F6E6721203A282020202020FB
:1013620020507265737320537461727400202020C0
:1013720020596F752077696E21202020202020506F
:0C13820072657373205374617274000074
:00000001FF
